:020000040000FA
:100000000A128A11EA2FFF1B0D2883137F1883170A
:100010000008840A0319FF0A080000308A00040857
:10002000840A8207003420342034203420342034E1
:100030002034203420342034203420342034203420
:100040002034203420340034533445344E34483482
:1000500041343A34203420342034203420342034C5
:10006000203420342034203400344F34703465344C
:10007000723461346E3464346F342E342E342E3442
:100080002E342034203420342034003470346C3446
:1000900061347934733474346134743469346F3452
:1000A0006E3420343234203420342034003473341D
:1000B00065346E3468346134203463346F347234A0
:1000C0007234653474346134213420342034003483
:1000D000203454346534723474346F3473342034BF
:1000E0005434653472346F346E34613420342034C7
:1000F0000034733465346E346834613420346934C8
:100100006E3463346F3472347234653474346134F1
:100110002134003431343A344F347034653472341D
:100120006134633461346F34203443343A3463349B
:0601300066346734003460
:1007CA00831603178901F0308316031386008312F8
:1007DA00031386010800F5007508F40006300310BB
:1007EA00F40DFF3E031DF42B730874077F39803E16
:1007FA000A128A11CF240A128A1108007E088A0076
:10080A007F0882000A128A1103240A128A118000C0
:10081A00840A04087D0603190034FF0A0319FE0A34
:10082A00072C3134323433344134343435343634A9
:10083A00423437343834393443342A343034233464
:10084A0044343234313431343834392C0130F00202
:10085A000030031CF103F102C730F200342CF20B12
:10086A00332C372C382C392C70087104031D3E2C7C
:10087A003F2C2B2C402C08008316031308118811D7
:10088A000812881208138813831203138815283054
:10089A000A128A11CF240A128A110C300A128A11FA
:1008AA00CF240A128A1101300A128A11CF240A129D
:1008BA008A1102300A128A11CF240A128A110800F8
:1008CA00F2008312031308157208F00004300310B3
:1008DA00F00CFF3E031D6C2C7008F100F10E0808A5
:1008EA0071060F397106880088110D30F000F00B7F
:1008FA007C2C831203138815081572080F39F0002F
:10090A00F00E080870060F397006880088110D303D
:10091A00F000F00B8E2C8312031388150800FB00DD
:10092A007608F9007908FA007608F9007908F300E0
:10093A007B080A128A11F0230A128A11BD2C780840
:10094A0083120313FF00770884000A128A11032016
:10095A000A128A110A128A1165240A128A110130AE
:10096A00F7070318F80A0130F9007908FA07BD2CCD
:10097A00780883120313FF00770884000A128A1189
:10098A0003200A128A11003A031DCC2CCD2CA42C68
:10099A00CE2C0800F2008312031308117208F0002B
:1009AA0004300310F00CFF3E031DD62C7008F10032
:1009BA00F10E080871060F39710688008811720352
:1009CA000319E82CE92CF02C02307206031DEE2CD8
:1009DA00EF2CFA2CF02C0330F1009730F000F00BDA
:1009EA00F42CF10BF42CF92CFF2C0D30F000F00B49
:1009FA00FC2CFF2C831203138815F0307205F000CB
:100A0A0020307006031D0A2D0B2D252D08117208A2
:100A1A00F00004300310F00CFF3E031D0F2D700888
:100A2A00F100F10E080871060F3971068800881165
:100A3A000D30F000F00B1F2D831203138815252D9E
:100A4A00081172080F39F000F00E080870060F3905
:100A5A0070068800881172030319342D352D3C2D38
:100A6A0002307206031D3A2D3B2D462D3C2D0330D4
:100A7A00F1009730F000F00B402DF10B402D452D81
:100A8A004B2D0D30F000F00B482D4B2D8312031324
:100A9A0088150800F401F50104307502031C562D6F
:100AAA00572D592DAA2DAA2D0130F000750A5F2D58
:100ABA000310F00DFF3E031D5D2D70088312031312
:100ACA008600F60104307602031C6C2D6D2D6F2D05
:100ADA009F2D9F2D1030F000760A752D0310F00D12
:100AEA00FF3E031D732D7008060503197D2D7E2D0B
:100AFA00942D7508F00002300310F00DFF3E031D1F
:100B0A00812D20307007F10076087107F200720813
:100B1A00840083130008F3007308F400942D013055
:100B2A00F0007008F60704307602031C9D2D9E2DF6
:100B3A006F2D9F2D0130F0007008F5070430750203
:100B4A00031CA82DA92D592DAA2D02308312031397
:100B5A008600F60104307602031CB42DB52DB72D9C
:100B6A00DA2DDA2D1030F000760ABD2D0310F00DC3
:100B7A00FF3E031DBB2D700806050319C52DC62DA2
:100B8A00CF2D7608243E840083130008F0007008F5
:100B9A00F400CF2D0130F0007008F6070430760219
:100BAA00031CD82DD92DB72DDA2D7408DC2D080099
:100BBA000A128A11E5230A128A110A128A11412499
:100BCA000A128A1183120313BF01BC01BC0ABD01B8
:100BDA004408BB004308BA004208B9004108B800FB
:100BEA003308B7003208B6003108B5003008B4003F
:100BFA00C001BE01002E0A128A114F250A128A115B
:100C0A00FC007C0883120313C000F32EBE01BE0A47
:100C1A00C02FF6013430F7008030F80000300A1295
:100C2A008A1194240A128A11B830F0000B30F100AC
:100C3A000A128A112A240A128A110A30FC007C0834
:100C4A0083120313BE00C02FF6015630F70080301E
:100C5A00F80000300A128A1194240A128A11F60145
:100C6A007830F7008030F80001300A128A11942493
:100C7A000A128A113130831203134006031D462ECD
:100C8A00472E4C2E1430FC007C08BE004C2E4330FC
:100C9A004006031D512E522EC02F1E30FC007C0828
:100CAA00BE00C02FC02FF6012330F7008030F800B5
:100CBA0000300A128A1194240A128A11F6010130AC
:100CCA00F7008030F80001300A128A1194240A12BF
:100CDA008A112A30831203134006031D752E762EBD
:100CEA00C02F0A30FC007C08BE00C02FC02FF601BE
:100CFA001230F7008030F80000300A128A1194246A
:100D0A000A128A11F6010130F7008030F80001302A
:100D1A000A128A1194240A128A112030FC007C08D3
:100D2A0083120313BE00C02F0730FC007C08F600B4
:100D3A003830F7000030F80000300A128A11942483
:100D4A000A128A116430831203133D06031DAE2E64
:100D5A00AF2EB42E2730FC007C08BE00B42E5A30C9
:100D6A003D06031DB92EBA2EC02F2630FC007C0882
:100D7A00BE00C02FC02FF6016730F7008030F800A0
:100D8A0000300A128A1194240A128A112A30831214
:100D9A0003134006031DD22ED32EC02F0A30FC00A7
:100DAA007C08BE00C02FC02FF6014530F700803006
:100DBA00F80000300A128A1194240A128A112A3081
:100DCA00831203134006031DEB2EEC2EC02F0A30AC
:100DDA00FC007C08BE00C02FC02FC02F3E08FC00BC
:100DEA00FD017D08003A0319FB2EC02F7C08003A4A
:100DFA0003190B2E013A03190E2E0B3A0319292E49
:100E0A001E3A0319582E0A3A03197C2E3E3A031940
:100E1A00992E063A0319C02E013A0319D92EC02F6A
:100E2A00C02F1E303E06031D1B2F1C2F002E0A301A
:100E3A00FC007C08BD00002E002EBF01B801B901DC
:100E4A00BA01BB01BC01BC0A0C30FC007C08BD0025
:100E5A00002E30304002031C332F342F002E3A303C
:100E6A0040020318392F3A2F002E0E30FC007C085E
:100E7A00BD00002E002E4008FC003F08383E8400CA
:100E8A007C08831380000F30FC007C08BD00002E14
:100E9A004008031D512F522F002E1030FC007C08F1
:100EAA00BD00002E002E0130FC007C08BF07043074
:100EBA003F020318612F622F672F0C30FC007C0859
:100ECA00BD00002E1430FC007C08BD00002E002E50
:100EDA00BC01BC0ABF0104303F02031C752F762FE8
:100EEA00782F9D2F9D2F3C0803197C2F7D2F922F41
:100EFA003F08343E840083130008FC003F08383E54
:100F0A00840000087C0603198B2F8D2F01308E2F49
:100F1A000030FD007D08BC00922F0130FC007C08E7
:100F2A00BF0704303F02031C9B2F9C2F782F9D2F55
:100F3A003C080319A12FA22FA72F6430FC007C08BC
:100F4A00BD00002E5A30FC007C08BD00002E002E89
:100F5A0026303E06031DB22FB32F002EBD01002EF0
:100F6A00002E27303E06031DBB2FBC2F002EBD01CD
:100F7A00002E002E002E3D08FC00FD017D08003ADF
:100F8A000319C82F002E7C08003A0319162F0A3AB3
:100F9A000319222F063A03192E2F023A0319402F5A
:100FAA00013A03194D2F1F3A0319582F043A03190E
:100FBA006D2F4E3A0319AD2F3E3A0319B62F002E64
:100FCA00002E002E0A128A11002883133430FD00E5
:100FDA000430FE001630FF00203084000A128A1105
:100FEA0007240A128A11C101C201C301C401830183
:060FFA000A128A11DD2D30
:04400E00D4E0FFFFFC
:00000001FF
