:020000040000FA
:100000000A128A11EE2F00308A000408840A82073F
:100010000034203420342034203420342034203460
:100020002034203420342034203420342034203430
:10003000203400344F3470346534723461346E349B
:1000400064346F342E342E342E342E342034203445
:1000500020342034003470346C3461347934733497
:1000600074346134743469346F346E34203432340F
:1000700020342034203400345434653472347434E1
:100080006F34733420345434653472346F346E34C6
:100090006134203420342034003463346F346E34BF
:1000A0006634693467347534723461346E34643460
:1000B0006F342E342E342E342E34003431343A340E
:1000C0004F347034653472346134633461346F3466
:0E00D000203443343A346334663467340034E9
:100A6800831603178901F030831603138600831257
:100A780003138601080031343234333441343434BA
:100A880035343634423437343834393443342A34FC
:100A9800303423344434F5007508F400063003106C
:100AA800F40DFF3E031D532D730874077F39803EF4
:100AB8000A128A1112260A128A1108007E088A0070
:100AC8007F0882000A128A1162250A128A118000A0
:100AD800840A04087D0603190034FF0A0319FE0A74
:100AE800662D842D0130F0020030031CF103F10261
:100AF800C730F2007F2DF20B7E2D822D832D842DA1
:100B080070087104031D892D8A2D762D8B2D080000
:100B18008316031308118811081288120813881302
:100B280083120313881528300A128A1112260A1212
:100B38008A110C300A128A1112260A128A110130FF
:100B48000A128A1112260A128A1102300A128A110E
:100B580012260A128A110800F200831203130815DC
:100B68007208F00004300310F00CFF3E031DB72D8F
:100B78007008F100F10E080871060F397106880037
:100B880088110D30F000F00BC72D83120313881560
:100B9800081572080F39F000F00E080870060F39B2
:100BA8007006880088110D30F000F00BD92D8312E3
:100BB800031388150800FA007608F8007808F90089
:100BC8007608F8007808F3007A080A128A114F2587
:100BD8000A128A11042E770884000A128A11032047
:100BE8000A128A110A128A11B0250A128A110130D2
:100BF800F8007808F7070130F8007808F907042E9C
:100C0800770884000A128A1103200A128A11003A0E
:100C1800031D0F2E102EEF2D112E0800F200831247
:100C2800031308117208F00004300310F00CFF3EA3
:100C3800031D192E7008F100F10E080871060F390E
:100C4800710688008811720303192B2E2C2E332E5F
:100C580002307206031D312E322E3D2E332E033004
:100C6800F1009730F000F00B372EF10B372E3C2EA9
:100C7800422E0D30F000F00B3F2E422E831203134C
:100C88008815F0307205F00020307006031D4D2ED7
:100C98004E2E682E08117208F00004300310F00C74
:100CA800FF3E031D522E7008F100F10E0808710670
:100CB8000F397106880088110D30F000F00B622E94
:100CC800831203138815682E081172080F39F00073
:100CD800F00E080870060F39700688008811720334
:100CE8000319772E782E7F2E02307206031D7D2E73
:100CF8007E2E892E7F2E0330F1009730F000F00B06
:100D0800832EF10B832E882E8E2E0D30F000F00BE3
:100D18008B2E8E2E8312031388150800F401F5011B
:100D280004307502031C992E9A2E9C2EED2EED2E62
:100D38000130F000750AA22E0310F00DFF3E031DCE
:100D4800A02E7008831203138600F6010430760281
:100D5800031CAF2EB02EB22EE22EE22E1030F00081
:100D6800760AB82E0310F00DFF3E031DB62E70084C
:100D780006050319C02EC12ED72E7508F0000230C3
:100D88000310F00DFF3E031DC42E20307007F10044
:100D980076087107F2007208840083130008F300D4
:100DA8007308F400D72E0130F0007008F6070430FD
:100DB8007602031CE02EE12EB22EE22E0130F00066
:100DC8007008F50704307502031CEB2EEC2E9C2EE0
:100DD800ED2E0230831203138600F60104307602EA
:100DE800031CF72EF82EFA2E1D2F1D2F1030F000A1
:100DF800760A002F0310F00DFF3E031DFE2E70082B
:100E080006050319082F092F122F7608243E84009F
:100E180083130008F0007008F400122F0130F0006E
:100E28007008F60704307602031C1B2F1C2FFA2EBD
:100E38001D2F74081F2F08000A128A1134250A1260
:100E48008A110A128A118C250A128A118312031335
:100E5800B101B0012F2F0A128A1192260A128A11A3
:100E6800FB007B0883120313B100D02FB001B00A36
:100E78002F2FF6012330FB007B08F70000300A1201
:100E88008A11DF250A128A11B830F0000B30F10000
:100E98000A128A1175250A128A110A30FB007B088A
:100EA80083120313B0002F2FF6013430FB007B08A8
:100EB800F70000300A128A11DF250A128A11F6019A
:100EC8005630FB007B08F70001300A128A11DF2533
:100ED8000A128A113130831203133106031D752F4C
:100EE800762F7B2F1430FB007B08B0007B2F43301C
:100EF8003106031D802F812F2F2F6430FB007B08C4
:100F0800B0002F2F2F2FF6011230FB007B08F700BF
:100F180000300A128A11DF250A128A11F6010130FF
:100F2800FB007B08F70001300A128A11DF250A123C
:100F38008A112A30831203133106031DA42FA52F0B
:100F48002F2F0A30FB007B08B0002F2F2F2FF60120
:100F58004530FB007B08F70000300A128A11DF25B4
:100F68000A128A11F6010130FB007B08F7000130F4
:100F78000A128A11DF250A128A112A3083120313F2
:100F88003106031DC82FC92F2F2F0A30FB007B08FD
:100F9800B0002F2F2F2F2F2F3008FB00FC017C08CB
:100FA800003A0319D82F2F2F7B08003A03193A2F3C
:100FB800013A03193D2F0B3A0319582F1E3A03190A
:100FC800872F703A0319AB2F2F2F2F2F2F2F0A128D
:100FD8008A11002883133030FD000530FE003F30B1
:100FE800FF00203084000A128A1166250A128A112D
:080FF80083010A128A11202F67
:04400E00D4E0FFFFFC
:00000001FF
